:1000000000308A0019280000223084008313000881
:10001000031918280130F800F701F70B0D28F80B29
:100020000C284A30F700F70B13281628800B0A28F3
:10003000080003081F398300FF30A00083161F1437
:100040009F141F159F118313091283129412A0127B
:100050002008831687008312201620088316870045
:100060008312A011200883168700013083129400A8
:1000700000308316940083129001F8009200003043
:10008000831692001F149F141F159F1183121F10B7
:10009000F03097059D050030831686008312860197
:1000A000553086000430A100FA30A2000420A10BD4
:1000B0005428AA3086000430A100FA30A20004209F
:0800C000A10B5D28502863002C
:02400E00393F38
:00000001FF
;PIC16F877
;CRC=78DF  CREATED="07-Kas-23 16:03"
