:1000000000308A004A280000FF00030E8301A1008F
:100010000A08A0008A010408A2007708A300780853
:10002000A4007908A5007A08A600831383120B1E8A
:100030001B288B182C28220884002308F70024088A
:10004000F8002508F9002608FA0020088A00210E89
:100050008300FF0E7F0E09008A110A123D280A1044
:100060008A100A1182077E340C34B6349E34CC34A4
:10007000DA34F8340E34FE34DE3427082F20A90099
:100080008600A70A27080A3C0319A7018B108A11CA
:100090000A121B2803081F3983000130A700FF3014
:1000A000A80083161F149F141F159F118313091294
:1000B00083129412A8122808831687008312281628
:1000C0002808831687008312A81128088316870042
:1000D0000130831294000030831694008312900143
:1000E000F80092000030831692001F149F141F1511
:1000F0009F1183121F10F03097059D050130831664
:1001000086007E30831286008316011783120B1639
:08011000C0308B048A28630053
:02400E00393F38
:00000001FF
;PIC16F877
;CRC=4B12  CREATED="21-Kas-23 15:02"
