:1000000001308A00B2290000D330F9343A00D330ED
:10001000F9343A00D330F9343A002B30840083139A
:100020000008031921280130F800F701F70B162802
:10003000F80B15284A30F700F70B1C281F28800BF7
:1000400013280800320EF039F7000F300605770448
:100050008600000006142C28061008000608F70089
:10006000060E0F39F80008008316061086100611D8
:10007000831286100F3083160605F038860083122F
:1000800006150000061400002E207808B2000610A5
:100090000000061400002E207808B10006100F3072
:1000A0008316060586008312320EF700F030F7053E
:1000B00077083104F8007808B100B11B3A282F1CEA
:1000C00086102F1886140000061100000610300E4E
:1000D000B1000F30B1053108B200222030080F39CD
:1000E000B100B200222008002830A5000C30A60084
:1000F0000130A7000630A8000610861006110F3048
:100100008316060586000610861006110F3083122E
:10011000AB000D200130A4002408033C031C9828E8
:100120000330B20022200530AB000D20A40A8C2839
:100130000230B20022200530AB000D20A4012408BB
:10014000033C031CAF2825302407840083130008D8
:10015000A900AF012908B0003420A40A9F288A1101
:100160000A12EB292C0BB528B8284030AD00B9286D
:10017000AD0101302B02AD072D088038AE00AF0174
:100180002E08B000342008002A08073A0319D228A4
:100190000B3A0319D728063A0319DF28023A031944
:1001A000E528EA280130AB00AC00B220EF28AF010F
:1001B0000130B00034200230AB000D20EF280130B8
:1001C000AB000230AC00B220EF28AF011030B0001D
:1001D0003420EF280130AF002A08B0003420080096
:1001E0000B08A4008B13831603178C170C14000044
:1001F000000083120313A41B8B1703170C087F390D
:10020000031944290313A40003170D080313A500C1
:1002100003170F080313A6002408AA00C42025080A
:1002200003178D000313260803178F0003130B0811
:10023000A7008B13831603178C170C140000000003
:1002400083120313A71B8B1703170C0D0E0D7F3999
:10025000031944290313A40003170D080313A50071
:1002600003170F080313A6002408AA00C4202508BA
:1002700003178D000313260803178F008D0A031937
:100280008F0A0313F0280317031308002B08F80143
:100290002A0203184E292A08F7005A29F7010830C4
:1002A000AC00AA0DF70D2B0877020318F700F80D24
:1002B000AC0B512908002030251E3030A600240840
:1002C000F700A41F6B29F709F70A7708A4002D305F
:1002D000A600A51725142408AA006430AB00462107
:1002E0007708A40030307807A7002408AA000A3055
:1002F000AB00462130307707A90030307807A800DE
:100300002608F7003030270203198A29A514A51BF7
:1003100025159E292608A7002030A6003030280287
:10032000031996292514A51BA5149E29031D251420
:10033000031D9E292708A8002030A7002519A529FC
:10034000A518A8292518AB29AE292608AA00C4207B
:100350002708AA00C4202808AA00C4202908AA0047
:10036000C420080003081F398300FF30A000A20149
:10037000A10183161F149F141F159F1183130912C7
:1003800083129412A012200883168700831220166D
:100390002008831687008312A01120088316870087
:1003A0000130831294000030831694008312900170
:1003B000F80092000030831692001F149F141F153E
:1003C0009F1183121F10F03097059D050030831692
:1003D0008600831274280230A400FA30AB000D208E
:1003E000A40BED29A301C830AB000D200130AB00F8
:1003F000AC00B220043003178D0000308F000313CF
:10040000F0200130AB000230AC00B2202308A40081
:100410001830A5005B21831605148312051C2D2AB4
:100420000230A400FA30AB000D20A40B122AA30A5C
:100430000130AB00AC00B220073003178D00003054
:100440008F000313F0200130AB000230AC00B2206B
:100450002308A4001830A5005B218316851483129D
:10046000851C4F2A0230A400FA30AB000D20A40BEB
:10047000342AA3030130AB00AC00B2200A300317CA
:100480008D0000308F000313F0200130AB000230EC
:10049000AC00B2202308A4001830A5005B210B2A71
:0204A0006300F7
:02400E00393F38
:00000001FF
;PIC16F877
;CRC=9881  CREATED="25-Ara-23 23:33"
