:1000000000308A005A280000FF00030E8301A1007F
:100010000A08A0008A010408A2007708A300780853
:10002000A4007908A5007A08A600831383120B1E8A
:100030001B288B182C28220884002308F70024088A
:10004000F8002508F9002608FA0020088A00210E89
:100050008300FF0E7F0E09008A110A123D280A1044
:100060008A100A1182077E340C34B6349E34CC34A4
:10007000DA34F8340E34FE34DE340130A7068B1047
:100080008A110A121B282B308400831300080319DD
:1000900057280130F800F701F70B4C28F80B4B28D4
:1000A0004A30F700F70B52285528800B49288A114F
:1000B0000A12A32803081F3983002710A801FF3064
:1000C000A90083161F149F141F159F118313091273
:1000D00083129412A9122908831687008312291605
:1000E0002908831687008312A9112908831687001F
:1000F0000130831294000030831694008312900123
:10010000F80092000030831692001F149F141F15F0
:100110009F1183121F10F03097059D050130831643
:1001200086007E30831286008316011783120B1619
:10013000C0308B0428082F20AA0086000230AA00B5
:10014000FA30AB004328AA0BA028271CAF28A8032D
:100150002808FF3C031DAE280930A800B428A80ACF
:0C01600028080A3C0319A8019A28630033
:02400E00393F38
:00000001FF
;PIC16F877
;CRC=4125  CREATED="21-Kas-23 15:07"
