:1000000000308A0019280000233084008313000880
:10001000031918280130F800F701F70B0D28F80B29
:100020000C284A30F700F70B13281628800B0A28F3
:10003000080003081F398300FF30A00083161F1437
:100040009F141F159F11831301308312A100831683
:10005000091283129412A0122008831687008312BB
:1000600020162008831687008312A011200883160B
:1000700087000130831294000030831694008312AD
:100080009001F80092000030831692001F149F1414
:100090001F159F1183121F10F03097059D0500302A
:1000A00083168600831286012108860083160514B4
:1000B000831205186A280430A200FA30A300042035
:1000C000A20B5D280310A10DA108031D69280130B2
:1000D000A10078280430A200FA30A3000420A20B6B
:1000E0006C280310A10CA108031D78288030A10002
:0400F000542863002D
:02400E00393F38
:00000001FF
;PIC16F877
;CRC=7F46  CREATED="07-Kas-23 14:14"
