:1000000003308A00B12B00000C00E418A01EA012DF
:1000100064006419A01EA0126600363084008313A9
:100020000008031921280130F800F701F70B162802
:10003000F80B15284A30F700F70B1C281F28800BF7
:10004000132808003D0EF039F7000F30060577043D
:100050008600000006142C28061008000608F70089
:10006000060E0F39F80008008316061086100611D8
:10007000831286100F3083160605F038860083122F
:1000800006150000061400002E207808BD0006109A
:100090000000061400002E207808BC0006100F3067
:1000A00083160605860083123D0EF700F030F70533
:1000B00077083C04F8007808BC00BC1B3A283A1CBE
:1000C00086103A18861400000611000006103B0E38
:1000D000BC000F30BC053C08BD0022203B080F3996
:1000E000BC00BD00222008002830A9000C30AA0066
:1000F0000130AB000630AC000610861006110F3040
:100100008316060586000610861006110F3083122E
:10011000B6000D200130A8002808033C031C9828D5
:100120000330BD0022200530B6000D20A80A8C281F
:100130000230BD0022200530B6000D20A80128089D
:10014000033C031CAF2829302807840083130008D0
:10015000AD00BA012D08BB003420A80A9F288A11DF
:100160000A12EA2B370BB528B8284030B800B92856
:10017000B80101303602B80738088038B900BA0132
:100180003908BB00342008003508073A0319D22883
:100190000B3A0319D728063A0319DF28023A031944
:1001A000E528EA280130B600B700B220EF28BA01EE
:1001B0000130BB0034200230B6000D20EF280130A2
:1001C000B6000230B700B220EF28BA011030BB00F1
:1001D0003420EF280130BA003508BB003420080075
:1001E0000B08A8008B13831603178C170C14000040
:1001F000000083120313A81B8B1703170C087F3909
:10020000031944290313A80003170D080313A900B9
:1002100003170F080313AA002808B500C4202908F3
:1002200003178D0003132A0803178F0003130B080D
:10023000AB008B13831603178C170C1400000000FF
:1002400083120313AB1B8B1703170C0D0E0D7F3995
:10025000031944290313A80003170D080313A90069
:1002600003170F080313AA002808B500C4202908A3
:1002700003178D0003132A0803178F008D0A031933
:100280008F0A0313F028031703138A110A120A2C8A
:100290000B08A9008B13831603178C170C1400008E
:1002A000000083120313A91B8B1703187F29031760
:1002B0000C087F390313A90003170D080313AA00C4
:1002C00003170F080313AB002908B500C4202A0840
:1002D00003178D0003132B0803178F0003130B085C
:1002E000AC008B13831603178C170C14000000004E
:1002F00083120313AC1B8B17A80B7F299E290317AE
:100300000C0D0E0D7F390313A90003170D080313FD
:10031000AA0003170F080313AB002908B500C42077
:100320002A0803178D0003132B0803178F008D0A6B
:1003300003198F0A03100313A80B482908002F087C
:10034000F8012E020318A7292E08F700B329F70198
:100350000830B000AE0DF70D2F0877020318F70034
:10036000F80DB00BAA2908002030291E3030AA0051
:100370002808F700A81FC429F709F70A7708A8007A
:100380002D30AA00A91729142808AE006430AF0048
:100390009F217708A80030307807AB002808AE000E
:1003A0000A30AF009F2130307707AD00303078073A
:1003B000AC002A08F70030302B020319E329A914F6
:1003C000A91B2915F7292A08AB002030AA003030D4
:1003D0002C020319EF292914A91BA914F729031DBD
:1003E0002914031DF7292B08AC002030AB00291974
:1003F000FE29A918012A2918042A072A2A08B50063
:10040000C4202B08B500C4202C08B500C4202D083A
:10041000B500C4208A110A121D2C8318122A3D30FF
:1004200084008313F701F801F901FA01BD01BE014F
:10043000BF01C0013C083B043A0439040319502AA7
:100440002030C1000310B50DB60DB70DB80DBD0DB0
:10045000BE0DBF0DC00D3C084002031D392A3B08EC
:100460003F02031D392A3A083E02031D392A390882
:100470003D02031C4A2A3908BD023A08031C3A0F00
:10048000BE023B08031C3B0FBF023C08031C3C0F91
:10049000C0020314F70DF80DF90DFA0DC10B222A55
:1004A0003D088000840A3E088000840A3F088000DE
:1004B000840A4008800008000408AD002C08AF0042
:1004C0000319EE2A2B08B8002A08B7002908B6003D
:1004D0002808B500BC01BB012030BA008230B90049
:1004E00035080319E02ABD0039080319E02ABD07C1
:1004F0000318812A7F30BD02031CE02A0319E02A79
:10050000852A8130BD070318E02A3D08F700F8016D
:10051000F901FA013608C100C1173708C0003808D0
:10052000BF001830BD00BE013F1CAE2A3C08FA07D0
:10053000031CA02AF90A031DA02AF80A0319BE17F2
:100540003B08F907031CA72AF80A0319BE173A0843
:10055000B700B7173708F8070318BE17BE0DF80C19
:10056000F90CFA0CC10CC00CBF0C0310BD0B932A84
:100570000130F7070318E02AF81BC52AC10DFA0D50
:10058000F90DF80DF7030319E02AC11FD62AFA0A5C
:10059000031DD62AF90A031DD62AF80A031DD62AF6
:1005A000F80CF90CFA0CF70A0319E02A3608BE0019
:1005B0003A08BE06BE1FDE2AF817E42AF813E42A1A
:1005C000F701F801F901FA017A08AB007908AA00ED
:1005D0007808A9007708A800AF0B622A2B08B8009A
:1005E0002A08B7002908B6002808B5003508B63C27
:1005F000B500FA013608B900B6170310B60CB70CEF
:10060000B80CFA0CF90CF80CF70CB50BFD2AB91F55
:10061000142BF709F809F909FA09F70A0319F80A76
:100620000319F90A0319FA0A7A08AB007908AA0033
:100630007808A9007708A800AB1F2B2BAD03AD16D7
:10064000A809A909AA09AB09A80A0319A90A031943
:10065000AA0A0319AB0A3B30B4009A30B300CA307F
:10066000B200B1010A30AF002C080319AD0A83149F
:100670002830840083132B08B8002A08B700290803
:10068000B6002808B5003408BC003308BB003208A7
:10069000BA003108B9000D227808F708031D632B52
:1006A0002C0A2F020319632B2D080319652B0F3910
:1006B0002F0203195D2B0318952BAD1B952B2D1BBA
:1006C000652B2030912B2030AD05AD1E732BAD1264
:1006D0002C08031DAD037708AD002D30B500C420F4
:1006E0002D08F700AD012C082F02031D812B770880
:1006F000AD002E30B500C4202D08F7002030AD0528
:1007000000303030AD1E912BAD122C08031DAD030F
:100710007708AD002D30B500C4202D08F700AD01DD
:100720003030F7077708B500C42083103408B800CC
:100730003308B7003208B6003108B500BC01BB0170
:10074000BA010A30B9000D227A08B4007908B30062
:100750007808B2007708B100AF0B372B8A110A1264
:10076000392C03081F398300FF30A000A201A1012A
:1007700083161F149F141F159F11831309128312D0
:100780009412A012200883168700831220162008D6
:10079000831687008312A01120088316870001307A
:1007A0008312940000308316940083129001F800A5
:1007B00092000030831692001F149F141F159F1182
:1007C00083121F10F03097059D05003083168600B8
:1007D000831274280230A800FA30B6000D20A80B4E
:1007E000EC2B0630B6000130B700B220C830B6009E
:1007F0000D200D30A300AE30A7004730A6006130B9
:10080000A5007D30A400043003178D0000308F0058
:100810000313F0280130B600B700B22005300317EB
:100820008D0000308F00031005300313A80048210D
:100830002308A8001830A900B4290130B6000230FE
:10084000B700B220093003178D0000308F0003106D
:1008500005300313A8004821893084002708AB0025
:100860002608AA002508A9002408A8000230AC0028
:100870005C2A0430A800FA30B6000D20A80B3B2CEF
:04088000032C6300E2
:02400E00393F38
:00000001FF
;PIC16F877
;CRC=04ED  CREATED="25-Ara-23 21:27"
