:1000000000308A00422800000A108A100A11820774
:100010003F3406345B344F3466346D347C340734FB
:100020007F346F3477347C3439345E3479347134CE
:10003000263084008313000803192C280130F800AF
:10004000F701F70B2128F80B20284A30F700F70BAF
:1000500027282A28800B1E2808002608F8012502D8
:10006000031835282508F7004128F7010830A700B4
:10007000A50DF70D260877020318F700F80DA70B5A
:100080003828080003081F398300A001A101A2013C
:10009000A301FF30A40083161F149F141F159F1186
:1000A0008313091283129412A41224088316870062
:1000B000831224162408831687008312A4112408AF
:1000C0008316870001308312940000308316940059
:1000D00083129001F80092000030831692001F14E2
:1000E0009F141F159F1183121F10F03097059D0557
:1000F0000030831685008600831286018501A001E9
:10010000A1010430A500FA30A6001820A50B832811
:100110002008A5000A30A6002D207708A20020089C
:10012000A5000A30A6002D207808A300220804208C
:10013000A500860085140530A60018208510230828
:100140000420A500860005140530A600182005101F
:10015000A10A2108643C031DB328A101A00A2008BC
:0A016000643C0319A0018828630025
:02400E00393F38
:00000001FF
;PIC16F877
;CRC=1A16  CREATED="14-Kas-23 14:42"
