:1000000000308A0019280000233084008313000880
:10001000031918280130F800F701F70B0D28F80B29
:100020000C284A30F700F70B13281628800B0A28F3
:10003000080003081F398300FF30A00083161F1437
:100040009F141F159F11831301308312A100831683
:10005000091283129412A0122008831687008312BB
:1000600020162008831687008312A011200883160B
:1000700087000130831294000030831694008312AD
:100080009001F80092000030831692001F149F1414
:100090001F159F1183121F10F03097059D05033027
:1000A00083168500003086008312860183160514AE
:1000B0008312051C6C28210886000430A200FA3047
:1000C000A3000420A20B5F280310A10CA108031DAC
:1000D0006B288030A1008128831685148312851C2B
:1000E0008128210886000430A200FA30A3000420F1
:1000F000A20B75280310A10DA108031D8128013052
:06010000A1005628630077
:02400E00393F38
:00000001FF
;PIC16F877
;CRC=1289  CREATED="07-Kas-23 16:20"
