:1000000001308A0046290000F43A7234613700005A
:100010000C00F430EE3272000C00283084008313A0
:100020000008031921280130F800F701F70B162802
:10003000F80B15284A30F700F70B1C281F28800BF7
:10004000132808002E0EF039F7000F30060577044C
:100050008600000006142C28061008000608F70089
:10006000060E0F39F80008008316061086100611D8
:10007000831286100F3083160605F038860083122F
:1000800006150000061400002E207808AE000610A9
:100090000000061400002E207808AD0006100F3076
:1000A00083160605860083122E0EF700F030F70542
:1000B00077082D04F8007808AD00AD1B3A282B1CFA
:1000C00086102B18861400000611000006102C0E56
:1000D000AD000F30AD052D08AE0022202C080F39E1
:1000E000AD00AE00222008002830A4000C30A5008E
:1000F0000130A6000630A7000610861006110F304A
:100100008316060586000610861006110F3083122E
:10011000A8000D200130A3002308033C031C9828ED
:100120000330AE0022200530A8000D20A30A8C2841
:100130000230AE0022200530A8000D20A3012308C4
:10014000033C031CAF2824302307840083130008DA
:10015000A800AB012808AC003420A30A9F288A110C
:100160000A127F29280BB528B8284030A900B928E1
:10017000A90101302702A90729088038AA00AB018C
:100180002A08AC00342008002608073A0319D228B0
:100190000B3A0319D728063A0319DF28023A031944
:1001A000E528EA280130A700A800B220EF28AB011B
:1001B0000130AC0034200230A8000D20EF280130BF
:1001C000A7000230A800B220EF28AB011030AC002D
:1001D0003420EF280130AB002608AC0034200800A2
:1001E0000B08A3008B13831603178C170C14000045
:1001F000000083120313A31B8B1703170C087F390E
:10020000031944290313A30003170D080313A400C3
:1002100003170F080313A5002308A600C420240811
:1002200003178D000313250803178F0003130B0812
:10023000A6008B13831603178C170C140000000004
:1002400083120313A61B8B1703170C0D0E0D7F399A
:10025000031944290313A30003170D080313A40073
:1002600003170F080313A5002308A600C4202408C1
:1002700003178D000313250803178F008D0A031938
:100280008F0A0313F02803170313080003081F390C
:100290008300FF30A000A201A10183161F149F1448
:1002A0001F159F118313091283129412A0122008A4
:1002B0008316870083122016200883168700831276
:1002C000A0112008831687000130831294000030AB
:1002D0008316940083129001F80092000030831678
:1002E00092001F149F141F159F1183121F10F030CE
:1002F00097059D050030831686008312742806300A
:10030000A7000130A800B220043003178D00003090
:100310008F000313F0200230A300FA30A8000D2054
:10032000A30B8D29083003178D0000308F000313B5
:10033000F0200630A7000230A800B22009300317D1
:100340008D0000308F000313F0200230A300FA303C
:10035000A8000D20A30BA7290C3003178D00003037
:0A0360008F000313F0207F296300D3
:02400E00393F38
:00000001FF
;PIC16F877
;CRC=3740  CREATED="26-Ara-23 15:51"
