:1000000000308A00542800000A108A100A11820762
:100010003F3406345B344F3466346D347D340734FA
:100020007F346F3477347C3439345E3479347134CE
:1000300088010816081C1E280130A000881C2228F0
:100040000230A000081D26280330A00008128816E0
:10005000081C2C280430A000881C30280530A00083
:10006000081D34280630A00088120817081C3A28FA
:100070000730A000881C3E280830A000081D422838
:100080000930A00008138817081C48280A30A0006F
:100090008818A001081D4E280B30A00088132008E6
:1000A000F8008A110A128D2803081F398300A00165
:1000B000FF30A10083161F149F141F159F11831377
:1000C0008312A2018316091283129412A11221082D
:1000D0008316870083122116210883168700831256
:1000E000A11121088316870001308312940000308B
:1000F000831694008312900183161F149F141F15FA
:100100009F1183121F10F0309D050030831686006A
:100110000F3088008312860118287808A200220870
:0A0120000420A30086008C28630071
:02400E00393F38
:00000001FF
;PIC16F877
;CRC=17D3  CREATED="16-Oca-24 10:36"
