:1000000000308A0019280000233084008313000880
:10001000031918280130F800F701F70B0D28F80B29
:100020000C284A30F700F70B13281628800B0A28F3
:10003000080003081F398300FF30A10083161F1436
:100040009F141F159F118313091283129412A1127A
:100050002108831687008312211621088316870042
:100060008312A111210883168700013083129400A6
:1000700000308316940083129001F8009200003043
:10008000831692001F149F141F159F1183121F10B7
:10009000F03097059D050030831686008312860197
:1000A0008312031306140230A200FA30A3000420C6
:1000B000A20B552806100230A200FA30A30004203B
:0800C000A20B5D28502863002B
:02400E00393F38
:00000001FF
;PIC16F877
;CRC=83CF  CREATED="29-Kas-23 20:04"
