:1000000000308A0048280000FF00030E8301A10091
:100010000A08A0008A010408A2007708A300780853
:10002000A4007908A5007A08A600831383128C30F7
:100030008400001D1D280C192E2822088400230886
:10004000F7002408F8002508F9002608FA0020081F
:100050008A00210E8300FF0E7F0E09008A110A120A
:1000600031288E018F018E0100001608273C031CE9
:100070004228031D3F2815080F3C031C422801306D
:1000800086004428023086000C118A110A121D28AD
:1000900003081F39830083161F149F141F159F1117
:1000A00083130912831294120130940000308316D6
:1000B0009400F800831292000030831692001F14FF
:1000C0009F141F159F1183121F10F0309D050030E3
:1000D00083168600043087008312860185309000E5
:1000E0008E018F018E010000970105309700831665
:1000F0000C15C03083128B04960195017E28630095
:02400E00393F38
:00000001FF
;PIC16F877
;CRC=D762  CREATED="16-Oca-24 00:28"
