:1000000000308A0037280000FF00030E8301A100A2
:100010000A08A0008A010408A2007708A300780853
:10002000A4007908A5007A08A600831383128B1E0A
:100030001B280B192C28220884002308F700240809
:10004000F8002508F9002608FA0020088A00210E89
:100050008300FF0E7F0E09008A110A122F28FF303D
:100060008100013086060B118A110A121B28030831
:100070001F398300FF30A70083161F149F141F151C
:100080009F118313091283129412A7122708831653
:100090008700831227162708831687008312A7116B
:1000A00027088316870001308312940000308316DE
:1000B000940083129001F8009200003083169200A1
:1000C0001F149F141F159F1183121F10F0309705E6
:1000D0009D05003083168600831286018316010871
:1000E000C03921388100FF30831281008B16C03067
:0600F0008B047928630077
:02400E00393F38
:00000001FF
;PIC16F877
;CRC=8009  CREATED="05-Ara-23 12:16"
