:1000000000308A002F2800000A108A100A11820787
:100010003F3406345B344F3466346D347C340734FB
:100020007F346F3477347C3439345E3479347134CE
:10003000233084008313000803192C280130F800B2
:10004000F701F70B2128F80B20284A30F700F70BAF
:1000500027282A28800B1E288A110A1273280308D1
:100060001F398300A001FF30A10083161F149F14C5
:100070001F159F118313091283129412A1122108D4
:1000800083168700831221162108831687008312A6
:10009000A1112108831687000130831294000030DB
:1000A0008316940083129001F800920000308316AA
:1000B00092001F149F141F159F1183121F10F03000
:1000C00097059D0500308316850086008312860102
:1000D0000230850020080420A20086000430A2001F
:1000E000FA30A3001828A20B7028A00A20080A3CA6
:0800F0000319A0016A28630056
:02400E00393F38
:00000001FF
;PIC16F877
;CRC=5A79  CREATED="16-Kas-23 15:10"
