:1000000001308A0042290000F432733A000028309F
:1000100084008313000803191B280130F800F7013E
:10002000F70B1028F80B0F284A30F700F70B1628AB
:100030001928800B0D2808002E0EF039F7000F301C
:10004000060577048600000006142628061008001E
:100050000608F700060E0F39F80008008316061090
:1000600086100611831286100F3083160605F038AD
:100070008600831206150000061400002820780868
:10008000AE00061000000614000028207808AD001D
:1000900006100F3083160605860083122E0EF70019
:1000A000F030F70577082D04F8007808AD00AD1B97
:1000B00034282B1C86102B18861400000611000013
:1000C00006102C0EAD000F30AD052D08AE001C2023
:1000D0002C080F39AD00AE001C2008002830A40009
:1000E0000C30A5000130A6000630A70006108610CF
:1000F00006110F30831606058600061086100611BD
:100100000F308312A80007200130A3002308033C0E
:10011000031C92280330AE001C200530A8000720E5
:10012000A30A86280230AE001C200530A800072054
:10013000A3012308033C031CA928243023078400BF
:1001400083130008A800AB012808AC002E20A30AE6
:1001500099288A110A127B29280BAF28B22840302F
:10016000A900B328A90101302702A907290880386E
:10017000AA00AB012A08AC002E2008002608073A86
:100180000319CC280B3A0319D128063A0319D928A8
:10019000023A0319DF28E4280130A700A800AC20A8
:1001A000E928AB010130AC002E200230A800072066
:1001B000E9280130A7000230A800AC20E928AB01F3
:1001C0001030AC002E20E9280130AB002608AC002E
:1001D0002E2008000B08A3008B13831603178C171F
:1001E0000C140000000083120313A31B8B170317CA
:1001F0000C087F3903193E290313A30003170D08C8
:100200000313A40003170F080313A5002308A60077
:10021000BE20240803178D000313250803178F0041
:1002200003130B08A6008B13831603178C170C14EB
:100230000000000083120313A61B8B1703170C0D7D
:100240000E0D7F3903193E290313A30003170D0870
:100250000313A40003170F080313A5002308A60027
:10026000BE20240803178D000313250803178F00F1
:100270008D0A03198F0A0313EA28031703138A113F
:100280000A12912903081F398300FF30A000A20140
:10029000A10183161F149F141F159F1183130912A8
:1002A00083129412A012200883168700831220164E
:1002B0002008831687008312A01120088316870068
:1002C0000130831294000030831694008312900151
:1002D000F80092000030831692001F149F141F151F
:1002E0009F1183121F10F03097059D050030831673
:1002F000860083126E280230A300FA30A80007207F
:10030000A30B7D290330A7000230A800AC20C83021
:10031000A8000720043003178D0000308F0003135E
:06032000EA2891296300A8
:02400E00393F38
:00000001FF
;PIC16F877
;CRC=5335  CREATED="25-Ara-23 20:53"
