:1000000000308A000428000003081F398300FF30F5
:10001000A00083161F149F141F159F11831309122C
:1000200083129412A01220088316870083122016D0
:100030002008831687008312A011200883168700EA
:1000400001308312940000308316940083129001D3
:10005000F80092000030831692001F149F141F15A1
:100060009F1183121F10F03097059D0501308316F4
:10007000860083128601061C422802308606061C72
:0800800042283F283B286300E1
:02400E00393F38
:00000001FF
;PIC16F877
;CRC=0CB9  CREATED="18-Kas-23 23:09"
